{
  "_format": "hh-sol-artifact-1",
  "contractName": "EvidenceManagement",
  "sourceName": "contracts/EvidenceManagement.sol",
  "abi": [
    {
      "inputs": [],
      "stateMutability": "nonpayable",
      "type": "constructor"
    },
    {
      "anonymous": false,
      "inputs": [
        {
          "indexed": false,
          "internalType": "uint256",
          "name": "id",
          "type": "uint256"
        },
        {
          "indexed": false,
          "internalType": "address",
          "name": "trigger",
          "type": "address"
        },
        {
          "indexed": false,
          "internalType": "string",
          "name": "Role",
          "type": "string"
        },
        {
          "indexed": false,
          "internalType": "bytes32",
          "name": "hash",
          "type": "bytes32"
        },
        {
          "indexed": false,
          "internalType": "uint256",
          "name": "timestamp",
          "type": "uint256"
        }
      ],
      "name": "EvidenceAdded",
      "type": "event"
    },
    {
      "anonymous": false,
      "inputs": [
        {
          "indexed": false,
          "internalType": "uint256",
          "name": "id",
          "type": "uint256"
        },
        {
          "indexed": false,
          "internalType": "address",
          "name": "trigger",
          "type": "address"
        },
        {
          "indexed": false,
          "internalType": "uint256",
          "name": "timestamp",
          "type": "uint256"
        }
      ],
      "name": "EvidenceDeleted",
      "type": "event"
    },
    {
      "anonymous": false,
      "inputs": [
        {
          "indexed": false,
          "internalType": "uint256",
          "name": "id",
          "type": "uint256"
        },
        {
          "indexed": false,
          "internalType": "address",
          "name": "trigger",
          "type": "address"
        },
        {
          "indexed": false,
          "internalType": "address",
          "name": "previousCustodian",
          "type": "address"
        },
        {
          "indexed": false,
          "internalType": "string",
          "name": "previousCustodianRole",
          "type": "string"
        },
        {
          "indexed": false,
          "internalType": "address",
          "name": "currentCustodian",
          "type": "address"
        },
        {
          "indexed": false,
          "internalType": "string",
          "name": "currentCustodianRole",
          "type": "string"
        },
        {
          "indexed": false,
          "internalType": "uint256",
          "name": "timestamp",
          "type": "uint256"
        }
      ],
      "name": "EvidenceTransferred",
      "type": "event"
    },
    {
      "anonymous": false,
      "inputs": [
        {
          "indexed": false,
          "internalType": "uint256",
          "name": "id",
          "type": "uint256"
        },
        {
          "indexed": false,
          "internalType": "address",
          "name": "trigger",
          "type": "address"
        },
        {
          "indexed": false,
          "internalType": "string",
          "name": "Role",
          "type": "string"
        },
        {
          "indexed": false,
          "internalType": "uint256",
          "name": "timestamp",
          "type": "uint256"
        }
      ],
      "name": "EvidenceVerified",
      "type": "event"
    },
    {
      "anonymous": false,
      "inputs": [
        {
          "indexed": true,
          "internalType": "bytes32",
          "name": "role",
          "type": "bytes32"
        },
        {
          "indexed": true,
          "internalType": "bytes32",
          "name": "previousAdminRole",
          "type": "bytes32"
        },
        {
          "indexed": true,
          "internalType": "bytes32",
          "name": "newAdminRole",
          "type": "bytes32"
        }
      ],
      "name": "RoleAdminChanged",
      "type": "event"
    },
    {
      "anonymous": false,
      "inputs": [
        {
          "indexed": true,
          "internalType": "bytes32",
          "name": "role",
          "type": "bytes32"
        },
        {
          "indexed": true,
          "internalType": "address",
          "name": "account",
          "type": "address"
        },
        {
          "indexed": true,
          "internalType": "address",
          "name": "sender",
          "type": "address"
        }
      ],
      "name": "RoleGranted",
      "type": "event"
    },
    {
      "anonymous": false,
      "inputs": [
        {
          "indexed": true,
          "internalType": "bytes32",
          "name": "role",
          "type": "bytes32"
        },
        {
          "indexed": true,
          "internalType": "address",
          "name": "account",
          "type": "address"
        },
        {
          "indexed": true,
          "internalType": "address",
          "name": "sender",
          "type": "address"
        }
      ],
      "name": "RoleRevoked",
      "type": "event"
    },
    {
      "inputs": [],
      "name": "ADMIN_ROLE",
      "outputs": [
        {
          "internalType": "bytes32",
          "name": "",
          "type": "bytes32"
        }
      ],
      "stateMutability": "view",
      "type": "function"
    },
    {
      "inputs": [],
      "name": "COURT_ROLE",
      "outputs": [
        {
          "internalType": "bytes32",
          "name": "",
          "type": "bytes32"
        }
      ],
      "stateMutability": "view",
      "type": "function"
    },
    {
      "inputs": [],
      "name": "DEFAULT_ADMIN_ROLE",
      "outputs": [
        {
          "internalType": "bytes32",
          "name": "",
          "type": "bytes32"
        }
      ],
      "stateMutability": "view",
      "type": "function"
    },
    {
      "inputs": [],
      "name": "EXPERT_ROLE",
      "outputs": [
        {
          "internalType": "bytes32",
          "name": "",
          "type": "bytes32"
        }
      ],
      "stateMutability": "view",
      "type": "function"
    },
    {
      "inputs": [],
      "name": "INVESTIGATOR_ROLE",
      "outputs": [
        {
          "internalType": "bytes32",
          "name": "",
          "type": "bytes32"
        }
      ],
      "stateMutability": "view",
      "type": "function"
    },
    {
      "inputs": [],
      "name": "LAWYER_ROLE",
      "outputs": [
        {
          "internalType": "bytes32",
          "name": "",
          "type": "bytes32"
        }
      ],
      "stateMutability": "view",
      "type": "function"
    },
    {
      "inputs": [
        {
          "internalType": "address",
          "name": "addr",
          "type": "address"
        }
      ],
      "name": "assignCourtRole",
      "outputs": [],
      "stateMutability": "nonpayable",
      "type": "function"
    },
    {
      "inputs": [
        {
          "internalType": "address",
          "name": "addr",
          "type": "address"
        }
      ],
      "name": "assignExpertRole",
      "outputs": [],
      "stateMutability": "nonpayable",
      "type": "function"
    },
    {
      "inputs": [
        {
          "internalType": "address",
          "name": "addr",
          "type": "address"
        }
      ],
      "name": "assignInvestigatorRole",
      "outputs": [],
      "stateMutability": "nonpayable",
      "type": "function"
    },
    {
      "inputs": [
        {
          "internalType": "address",
          "name": "addr",
          "type": "address"
        }
      ],
      "name": "assignLawyerRole",
      "outputs": [],
      "stateMutability": "nonpayable",
      "type": "function"
    },
    {
      "inputs": [
        {
          "internalType": "uint256",
          "name": "id",
          "type": "uint256"
        }
      ],
      "name": "deleteEvidence",
      "outputs": [],
      "stateMutability": "nonpayable",
      "type": "function"
    },
    {
      "inputs": [
        {
          "internalType": "uint256",
          "name": "",
          "type": "uint256"
        }
      ],
      "name": "evidenceRegistry",
      "outputs": [
        {
          "internalType": "string",
          "name": "name",
          "type": "string"
        },
        {
          "internalType": "string",
          "name": "description",
          "type": "string"
        },
        {
          "internalType": "address",
          "name": "custodian",
          "type": "address"
        },
        {
          "internalType": "string",
          "name": "custodianRole",
          "type": "string"
        },
        {
          "internalType": "uint256",
          "name": "timestamp",
          "type": "uint256"
        },
        {
          "internalType": "bytes32",
          "name": "hash",
          "type": "bytes32"
        },
        {
          "internalType": "bool",
          "name": "verified",
          "type": "bool"
        }
      ],
      "stateMutability": "view",
      "type": "function"
    },
    {
      "inputs": [
        {
          "internalType": "uint256",
          "name": "id",
          "type": "uint256"
        }
      ],
      "name": "getEvidence",
      "outputs": [
        {
          "internalType": "string",
          "name": "",
          "type": "string"
        },
        {
          "internalType": "string",
          "name": "",
          "type": "string"
        },
        {
          "internalType": "address",
          "name": "",
          "type": "address"
        },
        {
          "internalType": "string",
          "name": "",
          "type": "string"
        },
        {
          "internalType": "uint256",
          "name": "",
          "type": "uint256"
        },
        {
          "internalType": "bytes32",
          "name": "",
          "type": "bytes32"
        },
        {
          "internalType": "bool",
          "name": "",
          "type": "bool"
        }
      ],
      "stateMutability": "view",
      "type": "function"
    },
    {
      "inputs": [
        {
          "internalType": "bytes32",
          "name": "role",
          "type": "bytes32"
        }
      ],
      "name": "getRoleAdmin",
      "outputs": [
        {
          "internalType": "bytes32",
          "name": "",
          "type": "bytes32"
        }
      ],
      "stateMutability": "view",
      "type": "function"
    },
    {
      "inputs": [
        {
          "internalType": "bytes32",
          "name": "role",
          "type": "bytes32"
        },
        {
          "internalType": "address",
          "name": "account",
          "type": "address"
        }
      ],
      "name": "grantRole",
      "outputs": [],
      "stateMutability": "nonpayable",
      "type": "function"
    },
    {
      "inputs": [
        {
          "internalType": "bytes32",
          "name": "role",
          "type": "bytes32"
        },
        {
          "internalType": "address",
          "name": "account",
          "type": "address"
        }
      ],
      "name": "hasRole",
      "outputs": [
        {
          "internalType": "bool",
          "name": "",
          "type": "bool"
        }
      ],
      "stateMutability": "view",
      "type": "function"
    },
    {
      "inputs": [
        {
          "internalType": "bytes32",
          "name": "role",
          "type": "bytes32"
        },
        {
          "internalType": "address",
          "name": "account",
          "type": "address"
        }
      ],
      "name": "renounceRole",
      "outputs": [],
      "stateMutability": "nonpayable",
      "type": "function"
    },
    {
      "inputs": [
        {
          "internalType": "bytes32",
          "name": "role",
          "type": "bytes32"
        },
        {
          "internalType": "address",
          "name": "account",
          "type": "address"
        }
      ],
      "name": "revokeRole",
      "outputs": [],
      "stateMutability": "nonpayable",
      "type": "function"
    },
    {
      "inputs": [
        {
          "internalType": "uint256",
          "name": "id",
          "type": "uint256"
        },
        {
          "internalType": "string",
          "name": "_name",
          "type": "string"
        },
        {
          "internalType": "string",
          "name": "_description",
          "type": "string"
        },
        {
          "internalType": "bytes32",
          "name": "_hash",
          "type": "bytes32"
        }
      ],
      "name": "submitEvidence",
      "outputs": [],
      "stateMutability": "nonpayable",
      "type": "function"
    },
    {
      "inputs": [
        {
          "internalType": "bytes4",
          "name": "interfaceId",
          "type": "bytes4"
        }
      ],
      "name": "supportsInterface",
      "outputs": [
        {
          "internalType": "bool",
          "name": "",
          "type": "bool"
        }
      ],
      "stateMutability": "view",
      "type": "function"
    },
    {
      "inputs": [
        {
          "internalType": "uint256",
          "name": "id",
          "type": "uint256"
        },
        {
          "internalType": "address",
          "name": "_custodian",
          "type": "address"
        },
        {
          "internalType": "string",
          "name": "_custodianRole",
          "type": "string"
        }
      ],
      "name": "transferEvidence",
      "outputs": [],
      "stateMutability": "nonpayable",
      "type": "function"
    },
    {
      "inputs": [
        {
          "internalType": "uint256",
          "name": "id",
          "type": "uint256"
        }
      ],
      "name": "verifyEvidence",
      "outputs": [],
      "stateMutability": "nonpayable",
      "type": "function"
    }
  ],
  "bytecode": "0x60806040523480156200001157600080fd5b50620000447fc3ac62daf0e88d582bbd53046cc181f59cd6389ae21d9040d16b031515185649336200011260201b60201c565b620000767fc30672a9c8070b0e2d80ad0ec34ad08dc4bb3ab082b8e26f95864700e4684fb9336200011260201b60201c565b620000a87f11b7e281efca5c169c354dfab3e7aa9c241e32abc661390778af20e820c43c92336200011260201b60201c565b620000da7f16cedf8f601395ad37b8f7ac016395362fad21dfdd3152a47a294d9c5a3c2974336200011260201b60201c565b6200010c7fa49807205ce4d355092ef5a8a18f56e8913cf4a201fbe287825b095693c21775336200011260201b60201c565b6200028b565b6200012482826200012860201b60201c565b5050565b6200013a82826200021960201b60201c565b6200021557600160008084815260200190815260200160002060000160008373ffffffffffffffffffffffffffffffffffffffff1673ffffffffffffffffffffffffffffffffffffffff16815260200190815260200160002060006101000a81548160ff021916908315150217905550620001ba6200028360201b60201c565b73ffffffffffffffffffffffffffffffffffffffff168173ffffffffffffffffffffffffffffffffffffffff16837f2f8788117e7eff1d82e926ec794901d17c78024a50270940304540a733656f0d60405160405180910390a45b5050565b600080600084815260200190815260200160002060000160008373ffffffffffffffffffffffffffffffffffffffff1673ffffffffffffffffffffffffffffffffffffffff16815260200190815260200160002060009054906101000a900460ff16905092915050565b600033905090565b612fef806200029b6000396000f3fe608060405234801561001057600080fd5b50600436106101425760003560e01c806397737caa116100b8578063c8be74321161007c578063c8be743214610367578063c956f14314610383578063d547741f146103b9578063d75271d9146103d5578063ee23c3ee146103f1578063f63d586a1461040f57610142565b806397737caa146102bf578063a217fddf146102db578063aec33d0c146102f9578063b2a5aa6e14610315578063c3ebb52b1461033157610142565b806336568abe1161010a57806336568abe146101fd57806359edcc6c146102195780636aeaf6e31461023757806375b238fc146102535780638ec6269e1461027157806391d148541461028f57610142565b806301ffc9a714610147578063248a9ca3146101775780632f2ff15d146101a7578063315e6dd1146101c3578063335abc81146101e1575b600080fd5b610161600480360381019061015c91906120c7565b61042b565b60405161016e919061210f565b60405180910390f35b610191600480360381019061018c9190612160565b6104a5565b60405161019e919061219c565b60405180910390f35b6101c160048036038101906101bc9190612215565b6104c4565b005b6101cb6104e5565b6040516101d8919061219c565b60405180910390f35b6101fb60048036038101906101f691906123d1565b610509565b005b61021760048036038101906102129190612215565b61088a565b005b61022161090d565b60405161022e919061219c565b60405180910390f35b610251600480360381019061024c9190612470565b610931565b005b61025b610989565b604051610268919061219c565b60405180910390f35b6102796109ad565b604051610286919061219c565b60405180910390f35b6102a960048036038101906102a49190612215565b6109d1565b6040516102b6919061210f565b60405180910390f35b6102d960048036038101906102d49190612470565b610a3b565b005b6102e3610a93565b6040516102f0919061219c565b60405180910390f35b610313600480360381019061030e919061249d565b610a9a565b005b61032f600480360381019061032a91906124ca565b610c39565b005b61034b6004803603810190610346919061249d565b6110db565b60405161035e97969594939291906125d6565b60405180910390f35b610381600480360381019061037c919061249d565b6112e2565b005b61039d6004803603810190610398919061249d565b611567565b6040516103b097969594939291906125d6565b60405180910390f35b6103d360048036038101906103ce9190612215565b61197c565b005b6103ef60048036038101906103ea9190612470565b61199d565b005b6103f96119f5565b604051610406919061219c565b60405180910390f35b61042960048036038101906104249190612470565b611a19565b005b60007f7965db0b000000000000000000000000000000000000000000000000000000007bffffffffffffffffffffffffffffffffffffffffffffffffffffffff1916827bffffffffffffffffffffffffffffffffffffffffffffffffffffffff1916148061049e575061049d82611a71565b5b9050919050565b6000806000838152602001908152602001600020600101549050919050565b6104cd826104a5565b6104d681611adb565b6104e08383611aef565b505050565b7fc3ac62daf0e88d582bbd53046cc181f59cd6389ae21d9040d16b03151518564981565b6105337fc3ac62daf0e88d582bbd53046cc181f59cd6389ae21d9040d16b031515185649336109d1565b8061056457506105637fc30672a9c8070b0e2d80ad0ec34ad08dc4bb3ab082b8e26f95864700e4684fb9336109d1565b5b6105a3576040517f08c379a000000000000000000000000000000000000000000000000000000000815260040161059a906126a6565b60405180910390fd5b600073ffffffffffffffffffffffffffffffffffffffff166001600086815260200190815260200160002060020160009054906101000a900473ffffffffffffffffffffffffffffffffffffffff1673ffffffffffffffffffffffffffffffffffffffff1614610648576040517f08c379a000000000000000000000000000000000000000000000000000000000815260040161063f90612712565b60405180910390fd5b60606106747fc3ac62daf0e88d582bbd53046cc181f59cd6389ae21d9040d16b031515185649336109d1565b156106b6576040518060400160405280600c81526020017f496e76657374696761746f720000000000000000000000000000000000000000815250905061071f565b6106e07fc30672a9c8070b0e2d80ad0ec34ad08dc4bb3ab082b8e26f95864700e4684fb9336109d1565b1561071e576040518060400160405280600681526020017f457870657274000000000000000000000000000000000000000000000000000081525090505b5b60006040518060e001604052808681526020018581526020013373ffffffffffffffffffffffffffffffffffffffff16815260200183815260200142815260200184815260200160001515815250905080600160008881526020019081526020016000206000820151816000019081610798919061293e565b5060208201518160010190816107ae919061293e565b5060408201518160020160006101000a81548173ffffffffffffffffffffffffffffffffffffffff021916908373ffffffffffffffffffffffffffffffffffffffff160217905550606082015181600301908161080b919061293e565b506080820151816004015560a0820151816005015560c08201518160060160006101000a81548160ff0219169083151502179055509050507fe40cb95850233d9e0cba78d19c37a111b19f3e65aee869a1a4a008fed8d3e178863384864260405161087a959493929190612a10565b60405180910390a1505050505050565b610892611bcf565b73ffffffffffffffffffffffffffffffffffffffff168173ffffffffffffffffffffffffffffffffffffffff16146108ff576040517f08c379a00000000000000000000000000000000000000000000000000000000081526004016108f690612adc565b60405180910390fd5b6109098282611bd7565b5050565b7f11b7e281efca5c169c354dfab3e7aa9c241e32abc661390778af20e820c43c9281565b7fc30672a9c8070b0e2d80ad0ec34ad08dc4bb3ab082b8e26f95864700e4684fb961095b81611adb565b6109857fc30672a9c8070b0e2d80ad0ec34ad08dc4bb3ab082b8e26f95864700e4684fb9836104c4565b5050565b7fa49807205ce4d355092ef5a8a18f56e8913cf4a201fbe287825b095693c2177581565b7f16cedf8f601395ad37b8f7ac016395362fad21dfdd3152a47a294d9c5a3c297481565b600080600084815260200190815260200160002060000160008373ffffffffffffffffffffffffffffffffffffffff1673ffffffffffffffffffffffffffffffffffffffff16815260200190815260200160002060009054906101000a900460ff16905092915050565b7f16cedf8f601395ad37b8f7ac016395362fad21dfdd3152a47a294d9c5a3c2974610a6581611adb565b610a8f7f16cedf8f601395ad37b8f7ac016395362fad21dfdd3152a47a294d9c5a3c2974836104c4565b5050565b6000801b81565b7f11b7e281efca5c169c354dfab3e7aa9c241e32abc661390778af20e820c43c92610ac481611adb565b600073ffffffffffffffffffffffffffffffffffffffff166001600084815260200190815260200160002060020160009054906101000a900473ffffffffffffffffffffffffffffffffffffffff1673ffffffffffffffffffffffffffffffffffffffff1603610b69576040517f08c379a0000000000000000000000000000000000000000000000000000000008152600401610b6090612b6e565b60405180910390fd5b7fd8a754de836699e74b09487360b24ee37d194b5a9f7c542d7627ca6e1d28b530823342604051610b9c93929190612b8e565b60405180910390a16001600083815260200190815260200160002060008082016000610bc89190611fa6565b600182016000610bd89190611fa6565b6002820160006101000a81549073ffffffffffffffffffffffffffffffffffffffff0219169055600382016000610c0f9190611fa6565b600482016000905560058201600090556006820160006101000a81549060ff021916905550505050565b610c637f16cedf8f601395ad37b8f7ac016395362fad21dfdd3152a47a294d9c5a3c2974336109d1565b80610c945750610c937f11b7e281efca5c169c354dfab3e7aa9c241e32abc661390778af20e820c43c92336109d1565b5b80610cc55750610cc47fc3ac62daf0e88d582bbd53046cc181f59cd6389ae21d9040d16b031515185649336109d1565b5b80610cf65750610cf57fc30672a9c8070b0e2d80ad0ec34ad08dc4bb3ab082b8e26f95864700e4684fb9336109d1565b5b610d35576040517f08c379a0000000000000000000000000000000000000000000000000000000008152600401610d2c90612c37565b60405180910390fd5b600073ffffffffffffffffffffffffffffffffffffffff166001600085815260200190815260200160002060020160009054906101000a900473ffffffffffffffffffffffffffffffffffffffff1673ffffffffffffffffffffffffffffffffffffffff1614610dda576040517f08c379a0000000000000000000000000000000000000000000000000000000008152600401610dd190612712565b60405180910390fd5b610de2611fe6565b60006060600160008781526020019081526020016000206040518060e0016040529081600082018054610e1490612761565b80601f0160208091040260200160405190810160405280929190818152602001828054610e4090612761565b8015610e8d5780601f10610e6257610100808354040283529160200191610e8d565b820191906000526020600020905b815481529060010190602001808311610e7057829003601f168201915b50505050508152602001600182018054610ea690612761565b80601f0160208091040260200160405190810160405280929190818152602001828054610ed290612761565b8015610f1f5780601f10610ef457610100808354040283529160200191610f1f565b820191906000526020600020905b815481529060010190602001808311610f0257829003601f168201915b505050505081526020016002820160009054906101000a900473ffffffffffffffffffffffffffffffffffffffff1673ffffffffffffffffffffffffffffffffffffffff1673ffffffffffffffffffffffffffffffffffffffff168152602001600382018054610f8e90612761565b80601f0160208091040260200160405190810160405280929190818152602001828054610fba90612761565b80156110075780601f10610fdc57610100808354040283529160200191611007565b820191906000526020600020905b815481529060010190602001808311610fea57829003601f168201915b5050505050815260200160048201548152602001600582015481526020016006820160009054906101000a900460ff1615151515815250509250826040015191508260600151905084836040019073ffffffffffffffffffffffffffffffffffffffff16908173ffffffffffffffffffffffffffffffffffffffff16815250508383606001819052507f46f76636ea3c81e95a45350960404b90daa7932e8c6b563381016bf23a842ab6863384848989426040516110cb9796959493929190612c57565b60405180910390a1505050505050565b60016020528060005260406000206000915090508060000180546110fe90612761565b80601f016020809104026020016040519081016040528092919081815260200182805461112a90612761565b80156111775780601f1061114c57610100808354040283529160200191611177565b820191906000526020600020905b81548152906001019060200180831161115a57829003601f168201915b50505050509080600101805461118c90612761565b80601f01602080910402602001604051908101604052809291908181526020018280546111b890612761565b80156112055780601f106111da57610100808354040283529160200191611205565b820191906000526020600020905b8154815290600101906020018083116111e857829003601f168201915b5050505050908060020160009054906101000a900473ffffffffffffffffffffffffffffffffffffffff169080600301805461124090612761565b80601f016020809104026020016040519081016040528092919081815260200182805461126c90612761565b80156112b95780601f1061128e576101008083540402835291602001916112b9565b820191906000526020600020905b81548152906001019060200180831161129c57829003601f168201915b5050505050908060040154908060050154908060060160009054906101000a900460ff16905087565b61130c7f16cedf8f601395ad37b8f7ac016395362fad21dfdd3152a47a294d9c5a3c2974336109d1565b8061133d575061133c7f11b7e281efca5c169c354dfab3e7aa9c241e32abc661390778af20e820c43c92336109d1565b5b61137c576040517f08c379a0000000000000000000000000000000000000000000000000000000008152600401611373906126a6565b60405180910390fd5b600073ffffffffffffffffffffffffffffffffffffffff166001600083815260200190815260200160002060020160009054906101000a900473ffffffffffffffffffffffffffffffffffffffff1673ffffffffffffffffffffffffffffffffffffffff1603611421576040517f08c379a000000000000000000000000000000000000000000000000000000000815260040161141890612b6e565b60405180910390fd5b600180600083815260200190815260200160002060060160006101000a81548160ff021916908315150217905550606061147b7f16cedf8f601395ad37b8f7ac016395362fad21dfdd3152a47a294d9c5a3c2974336109d1565b156114bd576040518060400160405280600681526020017f4c617779657200000000000000000000000000000000000000000000000000008152509050611526565b6114e77f11b7e281efca5c169c354dfab3e7aa9c241e32abc661390778af20e820c43c92336109d1565b15611525576040518060400160405280600581526020017f436f75727400000000000000000000000000000000000000000000000000000081525090505b5b7fcec38dda5418f8e746b5fbd3289743b80cace119f9a9e1fa9e6902b93df3ac8a8233834260405161155b9493929190612cd4565b60405180910390a15050565b60608060006060600080600061159d7f16cedf8f601395ad37b8f7ac016395362fad21dfdd3152a47a294d9c5a3c2974336109d1565b806115ce57506115cd7f11b7e281efca5c169c354dfab3e7aa9c241e32abc661390778af20e820c43c92336109d1565b5b806115ff57506115fe7fc3ac62daf0e88d582bbd53046cc181f59cd6389ae21d9040d16b031515185649336109d1565b5b80611630575061162f7fc30672a9c8070b0e2d80ad0ec34ad08dc4bb3ab082b8e26f95864700e4684fb9336109d1565b5b61166f576040517f08c379a000000000000000000000000000000000000000000000000000000000815260040161166690612c37565b60405180910390fd5b6000600160008a81526020019081526020016000206040518060e001604052908160008201805461169f90612761565b80601f01602080910402602001604051908101604052809291908181526020018280546116cb90612761565b80156117185780601f106116ed57610100808354040283529160200191611718565b820191906000526020600020905b8154815290600101906020018083116116fb57829003601f168201915b5050505050815260200160018201805461173190612761565b80601f016020809104026020016040519081016040528092919081815260200182805461175d90612761565b80156117aa5780601f1061177f576101008083540402835291602001916117aa565b820191906000526020600020905b81548152906001019060200180831161178d57829003601f168201915b505050505081526020016002820160009054906101000a900473ffffffffffffffffffffffffffffffffffffffff1673ffffffffffffffffffffffffffffffffffffffff1673ffffffffffffffffffffffffffffffffffffffff16815260200160038201805461181990612761565b80601f016020809104026020016040519081016040528092919081815260200182805461184590612761565b80156118925780601f1061186757610100808354040283529160200191611892565b820191906000526020600020905b81548152906001019060200180831161187557829003601f168201915b5050505050815260200160048201548152602001600582015481526020016006820160009054906101000a900460ff1615151515815250509050600073ffffffffffffffffffffffffffffffffffffffff16816040015173ffffffffffffffffffffffffffffffffffffffff160361193f576040517f08c379a000000000000000000000000000000000000000000000000000000000815260040161193690612b6e565b60405180910390fd5b806000015181602001518260400151836060015184608001518560a001518660c00151975097509750975097509750975050919395979092949650565b611985826104a5565b61198e81611adb565b6119988383611bd7565b505050565b7fc3ac62daf0e88d582bbd53046cc181f59cd6389ae21d9040d16b0315151856496119c781611adb565b6119f17fc3ac62daf0e88d582bbd53046cc181f59cd6389ae21d9040d16b031515185649836104c4565b5050565b7fc30672a9c8070b0e2d80ad0ec34ad08dc4bb3ab082b8e26f95864700e4684fb981565b7f11b7e281efca5c169c354dfab3e7aa9c241e32abc661390778af20e820c43c92611a4381611adb565b611a6d7f11b7e281efca5c169c354dfab3e7aa9c241e32abc661390778af20e820c43c92836104c4565b5050565b60007f01ffc9a7000000000000000000000000000000000000000000000000000000007bffffffffffffffffffffffffffffffffffffffffffffffffffffffff1916827bffffffffffffffffffffffffffffffffffffffffffffffffffffffff1916149050919050565b611aec81611ae7611bcf565b611cb8565b50565b611af982826109d1565b611bcb57600160008084815260200190815260200160002060000160008373ffffffffffffffffffffffffffffffffffffffff1673ffffffffffffffffffffffffffffffffffffffff16815260200190815260200160002060006101000a81548160ff021916908315150217905550611b70611bcf565b73ffffffffffffffffffffffffffffffffffffffff168173ffffffffffffffffffffffffffffffffffffffff16837f2f8788117e7eff1d82e926ec794901d17c78024a50270940304540a733656f0d60405160405180910390a45b5050565b600033905090565b611be182826109d1565b15611cb457600080600084815260200190815260200160002060000160008373ffffffffffffffffffffffffffffffffffffffff1673ffffffffffffffffffffffffffffffffffffffff16815260200190815260200160002060006101000a81548160ff021916908315150217905550611c59611bcf565b73ffffffffffffffffffffffffffffffffffffffff168173ffffffffffffffffffffffffffffffffffffffff16837ff6391f5c32d9c69d2a47ea670b442974b53935d1edc7fd64eb21e047a839171b60405160405180910390a45b5050565b611cc282826109d1565b611d3957611ccf81611d3d565b611cdd8360001c6020611d6a565b604051602001611cee929190612df4565b6040516020818303038152906040526040517f08c379a0000000000000000000000000000000000000000000000000000000008152600401611d309190612e2e565b60405180910390fd5b5050565b6060611d638273ffffffffffffffffffffffffffffffffffffffff16601460ff16611d6a565b9050919050565b606060006002836002611d7d9190612e7f565b611d879190612ec1565b67ffffffffffffffff811115611da057611d9f6122a6565b5b6040519080825280601f01601f191660200182016040528015611dd25781602001600182028036833780820191505090505b5090507f300000000000000000000000000000000000000000000000000000000000000081600081518110611e0a57611e09612ef5565b5b60200101907effffffffffffffffffffffffffffffffffffffffffffffffffffffffffffff1916908160001a9053507f780000000000000000000000000000000000000000000000000000000000000081600181518110611e6e57611e6d612ef5565b5b60200101907effffffffffffffffffffffffffffffffffffffffffffffffffffffffffffff1916908160001a90535060006001846002611eae9190612e7f565b611eb89190612ec1565b90505b6001811115611f58577f3031323334353637383961626364656600000000000000000000000000000000600f861660108110611efa57611ef9612ef5565b5b1a60f81b828281518110611f1157611f10612ef5565b5b60200101907effffffffffffffffffffffffffffffffffffffffffffffffffffffffffffff1916908160001a905350600485901c945080611f5190612f24565b9050611ebb565b5060008414611f9c576040517f08c379a0000000000000000000000000000000000000000000000000000000008152600401611f9390612f99565b60405180910390fd5b8091505092915050565b508054611fb290612761565b6000825580601f10611fc45750611fe3565b601f016020900490600052602060002090810190611fe2919061203e565b5b50565b6040518060e001604052806060815260200160608152602001600073ffffffffffffffffffffffffffffffffffffffff1681526020016060815260200160008152602001600080191681526020016000151581525090565b5b8082111561205757600081600090555060010161203f565b5090565b6000604051905090565b600080fd5b600080fd5b60007fffffffff0000000000000000000000000000000000000000000000000000000082169050919050565b6120a48161206f565b81146120af57600080fd5b50565b6000813590506120c18161209b565b92915050565b6000602082840312156120dd576120dc612065565b5b60006120eb848285016120b2565b91505092915050565b60008115159050919050565b612109816120f4565b82525050565b60006020820190506121246000830184612100565b92915050565b6000819050919050565b61213d8161212a565b811461214857600080fd5b50565b60008135905061215a81612134565b92915050565b60006020828403121561217657612175612065565b5b60006121848482850161214b565b91505092915050565b6121968161212a565b82525050565b60006020820190506121b1600083018461218d565b92915050565b600073ffffffffffffffffffffffffffffffffffffffff82169050919050565b60006121e2826121b7565b9050919050565b6121f2816121d7565b81146121fd57600080fd5b50565b60008135905061220f816121e9565b92915050565b6000806040838503121561222c5761222b612065565b5b600061223a8582860161214b565b925050602061224b85828601612200565b9150509250929050565b6000819050919050565b61226881612255565b811461227357600080fd5b50565b6000813590506122858161225f565b92915050565b600080fd5b600080fd5b6000601f19601f8301169050919050565b7f4e487b7100000000000000000000000000000000000000000000000000000000600052604160045260246000fd5b6122de82612295565b810181811067ffffffffffffffff821117156122fd576122fc6122a6565b5b80604052505050565b600061231061205b565b905061231c82826122d5565b919050565b600067ffffffffffffffff82111561233c5761233b6122a6565b5b61234582612295565b9050602081019050919050565b82818337600083830152505050565b600061237461236f84612321565b612306565b9050828152602081018484840111156123905761238f612290565b5b61239b848285612352565b509392505050565b600082601f8301126123b8576123b761228b565b5b81356123c8848260208601612361565b91505092915050565b600080600080608085870312156123eb576123ea612065565b5b60006123f987828801612276565b945050602085013567ffffffffffffffff81111561241a5761241961206a565b5b612426878288016123a3565b935050604085013567ffffffffffffffff8111156124475761244661206a565b5b612453878288016123a3565b92505060606124648782880161214b565b91505092959194509250565b60006020828403121561248657612485612065565b5b600061249484828501612200565b91505092915050565b6000602082840312156124b3576124b2612065565b5b60006124c184828501612276565b91505092915050565b6000806000606084860312156124e3576124e2612065565b5b60006124f186828701612276565b935050602061250286828701612200565b925050604084013567ffffffffffffffff8111156125235761252261206a565b5b61252f868287016123a3565b9150509250925092565b600081519050919050565b600082825260208201905092915050565b60005b83811015612573578082015181840152602081019050612558565b60008484015250505050565b600061258a82612539565b6125948185612544565b93506125a4818560208601612555565b6125ad81612295565b840191505092915050565b6125c1816121d7565b82525050565b6125d081612255565b82525050565b600060e08201905081810360008301526125f0818a61257f565b90508181036020830152612604818961257f565b905061261360408301886125b8565b8181036060830152612625818761257f565b905061263460808301866125c7565b61264160a083018561218d565b61264e60c0830184612100565b98975050505050505050565b7f4e6f7420796f757220726f6c6500000000000000000000000000000000000000600082015250565b6000612690600d83612544565b915061269b8261265a565b602082019050919050565b600060208201905081810360008301526126bf81612683565b9050919050565b7f4572726f723a2045766964656e636520646f6573206e6f742065786973747300600082015250565b60006126fc601f83612544565b9150612707826126c6565b602082019050919050565b6000602082019050818103600083015261272b816126ef565b9050919050565b7f4e487b7100000000000000000000000000000000000000000000000000000000600052602260045260246000fd5b6000600282049050600182168061277957607f821691505b60208210810361278c5761278b612732565b5b50919050565b60008190508160005260206000209050919050565b60006020601f8301049050919050565b600082821b905092915050565b6000600883026127f47fffffffffffffffffffffffffffffffffffffffffffffffffffffffffffffffff826127b7565b6127fe86836127b7565b95508019841693508086168417925050509392505050565b6000819050919050565b600061283b61283661283184612255565b612816565b612255565b9050919050565b6000819050919050565b61285583612820565b61286961286182612842565b8484546127c4565b825550505050565b600090565b61287e612871565b61288981848461284c565b505050565b5b818110156128ad576128a2600082612876565b60018101905061288f565b5050565b601f8211156128f2576128c381612792565b6128cc846127a7565b810160208510156128db578190505b6128ef6128e7856127a7565b83018261288e565b50505b505050565b600082821c905092915050565b6000612915600019846008026128f7565b1980831691505092915050565b600061292e8383612904565b9150826002028217905092915050565b61294782612539565b67ffffffffffffffff8111156129605761295f6122a6565b5b61296a8254612761565b6129758282856128b1565b600060209050601f8311600181146129a85760008415612996578287015190505b6129a08582612922565b865550612a08565b601f1984166129b686612792565b60005b828110156129de578489015182556001820191506020850194506020810190506129b9565b868310156129fb57848901516129f7601f891682612904565b8355505b6001600288020188555050505b505050505050565b600060a082019050612a2560008301886125c7565b612a3260208301876125b8565b8181036040830152612a44818661257f565b9050612a53606083018561218d565b612a6060808301846125c7565b9695505050505050565b7f416363657373436f6e74726f6c3a2063616e206f6e6c792072656e6f756e636560008201527f20726f6c657320666f722073656c660000000000000000000000000000000000602082015250565b6000612ac6602f83612544565b9150612ad182612a6a565b604082019050919050565b60006020820190508181036000830152612af581612ab9565b9050919050565b7f4572726f723a20506c6561736520636865636b207468652065766964656e636560008201527f204944207375626d697474656400000000000000000000000000000000000000602082015250565b6000612b58602d83612544565b9150612b6382612afc565b604082019050919050565b60006020820190508181036000830152612b8781612b4b565b9050919050565b6000606082019050612ba360008301866125c7565b612bb060208301856125b8565b612bbd60408301846125c7565b949350505050565b7f596f752073686f756c642062656c6f6e6720746f2061746c65617374206f6e6560008201527f206f7267616e697a6174696f6e00000000000000000000000000000000000000602082015250565b6000612c21602d83612544565b9150612c2c82612bc5565b604082019050919050565b60006020820190508181036000830152612c5081612c14565b9050919050565b600060e082019050612c6c600083018a6125c7565b612c7960208301896125b8565b612c8660408301886125b8565b8181036060830152612c98818761257f565b9050612ca760808301866125b8565b81810360a0830152612cb9818561257f565b9050612cc860c08301846125c7565b98975050505050505050565b6000608082019050612ce960008301876125c7565b612cf660208301866125b8565b8181036040830152612d08818561257f565b9050612d1760608301846125c7565b95945050505050565b600081905092915050565b7f416363657373436f6e74726f6c3a206163636f756e7420000000000000000000600082015250565b6000612d61601783612d20565b9150612d6c82612d2b565b601782019050919050565b6000612d8282612539565b612d8c8185612d20565b9350612d9c818560208601612555565b80840191505092915050565b7f206973206d697373696e6720726f6c6520000000000000000000000000000000600082015250565b6000612dde601183612d20565b9150612de982612da8565b601182019050919050565b6000612dff82612d54565b9150612e0b8285612d77565b9150612e1682612dd1565b9150612e228284612d77565b91508190509392505050565b60006020820190508181036000830152612e48818461257f565b905092915050565b7f4e487b7100000000000000000000000000000000000000000000000000000000600052601160045260246000fd5b6000612e8a82612255565b9150612e9583612255565b9250828202612ea381612255565b91508282048414831517612eba57612eb9612e50565b5b5092915050565b6000612ecc82612255565b9150612ed783612255565b9250828201905080821115612eef57612eee612e50565b5b92915050565b7f4e487b7100000000000000000000000000000000000000000000000000000000600052603260045260246000fd5b6000612f2f82612255565b915060008203612f4257612f41612e50565b5b600182039050919050565b7f537472696e67733a20686578206c656e67746820696e73756666696369656e74600082015250565b6000612f83602083612544565b9150612f8e82612f4d565b602082019050919050565b60006020820190508181036000830152612fb281612f76565b905091905056fea2646970667358221220ee31ac6380df027aa3df769beb4efd0d2087043b2eabcb8ec5a66f3881685cee64736f6c63430008120033",
  "linkReferences": {},
  "deployedLinkReferences": {}
}